{
  "contractName": "BrandRole",
  "abi": [
    {
      "inputs": [],
      "payable": false,
      "stateMutability": "nonpayable",
      "type": "constructor",
      "signature": "constructor"
    },
    {
      "anonymous": false,
      "inputs": [
        {
          "indexed": true,
          "name": "account",
          "type": "address"
        }
      ],
      "name": "BrandAdded",
      "type": "event",
      "signature": "0xf294465ab6aaa3650993093431777d23cda2be98f0ce448bbd202694c8beafb9"
    },
    {
      "anonymous": false,
      "inputs": [
        {
          "indexed": true,
          "name": "account",
          "type": "address"
        }
      ],
      "name": "BrandRemoved",
      "type": "event",
      "signature": "0x6b1e68582d3997fbab6e418eb4b63f4eb7d07b97cfaf26413e3f3052b68c43d0"
    },
    {
      "constant": true,
      "inputs": [
        {
          "name": "account",
          "type": "address"
        }
      ],
      "name": "isBrand",
      "outputs": [
        {
          "name": "",
          "type": "bool"
        }
      ],
      "payable": false,
      "stateMutability": "view",
      "type": "function",
      "signature": "0x05a5562d"
    },
    {
      "constant": false,
      "inputs": [
        {
          "name": "account",
          "type": "address"
        }
      ],
      "name": "addBrand",
      "outputs": [],
      "payable": false,
      "stateMutability": "nonpayable",
      "type": "function",
      "signature": "0x58aa5b2b"
    },
    {
      "constant": false,
      "inputs": [],
      "name": "renounceBrand",
      "outputs": [],
      "payable": false,
      "stateMutability": "nonpayable",
      "type": "function",
      "signature": "0xeecd06f1"
    }
  ],
  "bytecode": "0x608060405234801561001057600080fd5b506100293361002e640100000000026401000000009004565b6101e8565b61004f816000610095640100000000026102bd179091906401000000009004565b8073ffffffffffffffffffffffffffffffffffffffff167ff294465ab6aaa3650993093431777d23cda2be98f0ce448bbd202694c8beafb960405160405180910390a250565b600073ffffffffffffffffffffffffffffffffffffffff168173ffffffffffffffffffffffffffffffffffffffff16141515156100d157600080fd5b6100ea8282610154640100000000026401000000009004565b1515156100f657600080fd5b60018260000160008373ffffffffffffffffffffffffffffffffffffffff1673ffffffffffffffffffffffffffffffffffffffff16815260200190815260200160002060006101000a81548160ff0219169083151502179055505050565b60008073ffffffffffffffffffffffffffffffffffffffff168273ffffffffffffffffffffffffffffffffffffffff161415151561019157600080fd5b8260000160008373ffffffffffffffffffffffffffffffffffffffff1673ffffffffffffffffffffffffffffffffffffffff16815260200190815260200160002060009054906101000a900460ff16905092915050565b610448806101f76000396000f3fe608060405260043610610057576000357c0100000000000000000000000000000000000000000000000000000000900463ffffffff16806305a5562d1461005c57806358aa5b2b146100c5578063eecd06f114610116575b600080fd5b34801561006857600080fd5b506100ab6004803603602081101561007f57600080fd5b81019080803573ffffffffffffffffffffffffffffffffffffffff16906020019092919050505061012d565b604051808215151515815260200191505060405180910390f35b3480156100d157600080fd5b50610114600480360360208110156100e857600080fd5b81019080803573ffffffffffffffffffffffffffffffffffffffff16906020019092919050505061014a565b005b34801561012257600080fd5b5061012b61016a565b005b600061014382600061017590919063ffffffff16565b9050919050565b6101533361012d565b151561015e57600080fd5b61016781610209565b50565b61017333610263565b565b60008073ffffffffffffffffffffffffffffffffffffffff168273ffffffffffffffffffffffffffffffffffffffff16141515156101b257600080fd5b8260000160008373ffffffffffffffffffffffffffffffffffffffff1673ffffffffffffffffffffffffffffffffffffffff16815260200190815260200160002060009054906101000a900460ff16905092915050565b61021d8160006102bd90919063ffffffff16565b8073ffffffffffffffffffffffffffffffffffffffff167ff294465ab6aaa3650993093431777d23cda2be98f0ce448bbd202694c8beafb960405160405180910390a250565b61027781600061036d90919063ffffffff16565b8073ffffffffffffffffffffffffffffffffffffffff167f6b1e68582d3997fbab6e418eb4b63f4eb7d07b97cfaf26413e3f3052b68c43d060405160405180910390a250565b600073ffffffffffffffffffffffffffffffffffffffff168173ffffffffffffffffffffffffffffffffffffffff16141515156102f957600080fd5b6103038282610175565b15151561030f57600080fd5b60018260000160008373ffffffffffffffffffffffffffffffffffffffff1673ffffffffffffffffffffffffffffffffffffffff16815260200190815260200160002060006101000a81548160ff0219169083151502179055505050565b600073ffffffffffffffffffffffffffffffffffffffff168173ffffffffffffffffffffffffffffffffffffffff16141515156103a957600080fd5b6103b38282610175565b15156103be57600080fd5b60008260000160008373ffffffffffffffffffffffffffffffffffffffff1673ffffffffffffffffffffffffffffffffffffffff16815260200190815260200160002060006101000a81548160ff021916908315150217905550505056fea165627a7a72305820b5b1e626fce9efdd743f45aa70e274647ea100b467c6528470fb23094dd882e40029",
  "source": "pragma solidity ^0.5.0;\n\n// Import the library 'Roles'\nimport \"./Roles.sol\";\n\n// Define a contract 'BrandRole' to manage this role - add, remove, check\ncontract BrandRole {\n    using Roles for Roles.Role;\n\n    // Define 2 events, one for Adding, and other for Removing\n    event BrandAdded(address indexed account);\n    event BrandRemoved(address indexed account);\n\n    // Define a struct 'brands' by inheriting from 'Roles' library, struct Role\n    Roles.Role private brands;\n\n    // In the constructor make the address that deploys this contract the 1st brand\n    constructor() public {\n        _addBrand(msg.sender);\n    }\n\n    // Define a modifier that checks to see if msg.sender has the appropriate role\n    modifier onlyBrand() {\n        require(isBrand(msg.sender));\n        _;\n    }\n\n    // Define a function 'isBrand' to check this role\n    function isBrand(address account) public view returns (bool) {\n        return brands.has(account);\n    }\n\n    // Define a function 'addBrand' that adds this role\n    function addBrand(address account) public onlyBrand {\n        _addBrand(account);\n    }\n\n    // Define a function 'renounceBrand' to renounce this role\n    function renounceBrand() public {\n        _removeBrand(msg.sender);\n    }\n\n    // Define an internal function '_addBrand' to add this role, called by 'addBrand'\n    function _addBrand(address account) internal {\n        brands.add(account);\n        emit BrandAdded(account);\n    }\n\n    // Define an internal function '_removeBrand' to remove this role, called by 'removeBrand'\n    function _removeBrand(address account) internal {\n        brands.remove(account);\n        emit BrandRemoved(account);\n    }\n}",
  "sourcePath": "/Users/asajm/nanodegrees/blockchain developer/Project_9/brandSupplyChain/contracts/brandAccessControl/BrandRole.sol",
  "compiler": {
    "name": "solc",
    "version": "0.5.0+commit.1d4f565a.Emscripten.clang"
  },
  "schemaVersion": "3.0.2",
  "updatedAt": "2019-03-25T22:51:31.363Z",
  "devdoc": {
    "methods": {}
  },
  "userdoc": {
    "methods": {}
  }
}