{
  "contractName": "StoreRole",
  "abi": [
    {
      "inputs": [],
      "payable": false,
      "stateMutability": "nonpayable",
      "type": "constructor",
      "signature": "constructor"
    },
    {
      "anonymous": false,
      "inputs": [
        {
          "indexed": true,
          "name": "account",
          "type": "address"
        }
      ],
      "name": "StoreAdded",
      "type": "event",
      "signature": "0xd7143132cef62efb14dc187d256287bbc7e0f7ffeecf974b2ffede151ffb467c"
    },
    {
      "anonymous": false,
      "inputs": [
        {
          "indexed": true,
          "name": "account",
          "type": "address"
        }
      ],
      "name": "StoreRemoved",
      "type": "event",
      "signature": "0x8a3674246878227c5067d2b007a4bacdcade1cc2e8528c08c068d1987e99119c"
    },
    {
      "constant": true,
      "inputs": [
        {
          "name": "account",
          "type": "address"
        }
      ],
      "name": "isStore",
      "outputs": [
        {
          "name": "",
          "type": "bool"
        }
      ],
      "payable": false,
      "stateMutability": "view",
      "type": "function",
      "signature": "0x33f28e64"
    },
    {
      "constant": false,
      "inputs": [
        {
          "name": "account",
          "type": "address"
        }
      ],
      "name": "addStore",
      "outputs": [],
      "payable": false,
      "stateMutability": "nonpayable",
      "type": "function",
      "signature": "0x91577623"
    },
    {
      "constant": false,
      "inputs": [],
      "name": "renounceStore",
      "outputs": [],
      "payable": false,
      "stateMutability": "nonpayable",
      "type": "function",
      "signature": "0x3ff240c2"
    }
  ],
  "bytecode": "0x608060405234801561001057600080fd5b506100293361002e640100000000026401000000009004565b6101e8565b61004f8160006100956401000000000261036c179091906401000000009004565b8073ffffffffffffffffffffffffffffffffffffffff167fd7143132cef62efb14dc187d256287bbc7e0f7ffeecf974b2ffede151ffb467c60405160405180910390a250565b600073ffffffffffffffffffffffffffffffffffffffff168173ffffffffffffffffffffffffffffffffffffffff16141515156100d157600080fd5b6100ea8282610154640100000000026401000000009004565b1515156100f657600080fd5b60018260000160008373ffffffffffffffffffffffffffffffffffffffff1673ffffffffffffffffffffffffffffffffffffffff16815260200190815260200160002060006101000a81548160ff0219169083151502179055505050565b60008073ffffffffffffffffffffffffffffffffffffffff168273ffffffffffffffffffffffffffffffffffffffff161415151561019157600080fd5b8260000160008373ffffffffffffffffffffffffffffffffffffffff1673ffffffffffffffffffffffffffffffffffffffff16815260200190815260200160002060009054906101000a900460ff16905092915050565b610448806101f76000396000f3fe608060405260043610610057576000357c0100000000000000000000000000000000000000000000000000000000900463ffffffff16806333f28e641461005c5780633ff240c2146100c557806391577623146100dc575b600080fd5b34801561006857600080fd5b506100ab6004803603602081101561007f57600080fd5b81019080803573ffffffffffffffffffffffffffffffffffffffff16906020019092919050505061012d565b604051808215151515815260200191505060405180910390f35b3480156100d157600080fd5b506100da61014a565b005b3480156100e857600080fd5b5061012b600480360360208110156100ff57600080fd5b81019080803573ffffffffffffffffffffffffffffffffffffffff169060200190929190505050610155565b005b600061014382600061017590919063ffffffff16565b9050919050565b61015333610209565b565b61015e3361012d565b151561016957600080fd5b61017281610263565b50565b60008073ffffffffffffffffffffffffffffffffffffffff168273ffffffffffffffffffffffffffffffffffffffff16141515156101b257600080fd5b8260000160008373ffffffffffffffffffffffffffffffffffffffff1673ffffffffffffffffffffffffffffffffffffffff16815260200190815260200160002060009054906101000a900460ff16905092915050565b61021d8160006102bd90919063ffffffff16565b8073ffffffffffffffffffffffffffffffffffffffff167f8a3674246878227c5067d2b007a4bacdcade1cc2e8528c08c068d1987e99119c60405160405180910390a250565b61027781600061036c90919063ffffffff16565b8073ffffffffffffffffffffffffffffffffffffffff167fd7143132cef62efb14dc187d256287bbc7e0f7ffeecf974b2ffede151ffb467c60405160405180910390a250565b600073ffffffffffffffffffffffffffffffffffffffff168173ffffffffffffffffffffffffffffffffffffffff16141515156102f957600080fd5b6103038282610175565b151561030e57600080fd5b60008260000160008373ffffffffffffffffffffffffffffffffffffffff1673ffffffffffffffffffffffffffffffffffffffff16815260200190815260200160002060006101000a81548160ff0219169083151502179055505050565b600073ffffffffffffffffffffffffffffffffffffffff168173ffffffffffffffffffffffffffffffffffffffff16141515156103a857600080fd5b6103b28282610175565b1515156103be57600080fd5b60018260000160008373ffffffffffffffffffffffffffffffffffffffff1673ffffffffffffffffffffffffffffffffffffffff16815260200190815260200160002060006101000a81548160ff021916908315150217905550505056fea165627a7a72305820062382a75ddc03c51cf6c7a620274320b9797c314ee8d4b6404cc63ecc91eb4c0029",
  "source": "pragma solidity ^0.5.0;\n\n// Import the library 'Roles'\nimport \"./Roles.sol\";\n\n// Define a contract 'StoreRole' to manage this role - add, remove, check\ncontract StoreRole {\n    using Roles for Roles.Role;\n\n    // Define 2 events, one for Adding, and other for Removing\n    event StoreAdded(address indexed account);\n    event StoreRemoved(address indexed account);\n\n    // Define a struct 'stores' by inheriting from 'Roles' library, struct Role\n    Roles.Role private stores;\n\n    // In the constructor make the address that deploys this contract the 1st store\n    constructor() public {\n        _addStore(msg.sender);\n    }\n\n    // Define a modifier that checks to see if msg.sender has the appropriate role\n    modifier onlyStore() {\n        require(isStore(msg.sender));\n        _;\n    }\n\n    // Define a function 'isStore' to check this role\n    function isStore(address account) public view returns (bool) {\n        return stores.has(account);\n    }\n\n    // Define a function 'addStore' that adds this role\n    function addStore(address account) public onlyStore {\n        _addStore(account);\n    }\n\n    // Define a function 'renounceStore' to renounce this role\n    function renounceStore() public {\n        _removeStore(msg.sender);\n    }\n\n    // Define an internal function '_addStore' to add this role, called by 'addStore'\n    function _addStore(address account) internal {\n        stores.add(account);\n        emit StoreAdded(account);\n    }\n\n    // Define an internal function '_removeStore' to remove this role, called by 'removeStore'\n    function _removeStore(address account) internal {\n        stores.remove(account);\n        emit StoreRemoved(account);\n    }\n}",
  "sourcePath": "/Users/asajm/nanodegrees/blockchain developer/Project_9/brandSupplyChain/contracts/brandAccessControl/StoreRole.sol",
  "compiler": {
    "name": "solc",
    "version": "0.5.0+commit.1d4f565a.Emscripten.clang"
  },
  "schemaVersion": "3.0.2",
  "updatedAt": "2019-03-23T12:26:49.989Z",
  "devdoc": {
    "methods": {}
  },
  "userdoc": {
    "methods": {}
  }
}