{
  "contractName": "SupplyChain",
  "abi": [
    {
      "constant": true,
      "inputs": [
        {
          "name": "account",
          "type": "address"
        }
      ],
      "name": "isBrand",
      "outputs": [
        {
          "name": "",
          "type": "bool"
        }
      ],
      "payable": false,
      "stateMutability": "view",
      "type": "function",
      "signature": "0x05a5562d"
    },
    {
      "constant": false,
      "inputs": [
        {
          "name": "account",
          "type": "address"
        }
      ],
      "name": "addConsumer",
      "outputs": [],
      "payable": false,
      "stateMutability": "nonpayable",
      "type": "function",
      "signature": "0x112940f9"
    },
    {
      "constant": true,
      "inputs": [
        {
          "name": "account",
          "type": "address"
        }
      ],
      "name": "isStore",
      "outputs": [
        {
          "name": "",
          "type": "bool"
        }
      ],
      "payable": false,
      "stateMutability": "view",
      "type": "function",
      "signature": "0x33f28e64"
    },
    {
      "constant": false,
      "inputs": [],
      "name": "renounceStore",
      "outputs": [],
      "payable": false,
      "stateMutability": "nonpayable",
      "type": "function",
      "signature": "0x3ff240c2"
    },
    {
      "constant": false,
      "inputs": [
        {
          "name": "account",
          "type": "address"
        }
      ],
      "name": "addBrand",
      "outputs": [],
      "payable": false,
      "stateMutability": "nonpayable",
      "type": "function",
      "signature": "0x58aa5b2b"
    },
    {
      "constant": false,
      "inputs": [],
      "name": "renounceConsumer",
      "outputs": [],
      "payable": false,
      "stateMutability": "nonpayable",
      "type": "function",
      "signature": "0x61e6982d"
    },
    {
      "constant": false,
      "inputs": [],
      "name": "renounceDistributor",
      "outputs": [],
      "payable": false,
      "stateMutability": "nonpayable",
      "type": "function",
      "signature": "0x644241db"
    },
    {
      "constant": false,
      "inputs": [
        {
          "name": "account",
          "type": "address"
        }
      ],
      "name": "addDistributor",
      "outputs": [],
      "payable": false,
      "stateMutability": "nonpayable",
      "type": "function",
      "signature": "0x7250e224"
    },
    {
      "constant": true,
      "inputs": [
        {
          "name": "account",
          "type": "address"
        }
      ],
      "name": "isConsumer",
      "outputs": [
        {
          "name": "",
          "type": "bool"
        }
      ],
      "payable": false,
      "stateMutability": "view",
      "type": "function",
      "signature": "0x834ff739"
    },
    {
      "constant": true,
      "inputs": [
        {
          "name": "account",
          "type": "address"
        }
      ],
      "name": "isDistributor",
      "outputs": [
        {
          "name": "",
          "type": "bool"
        }
      ],
      "payable": false,
      "stateMutability": "view",
      "type": "function",
      "signature": "0x8f0c86fa"
    },
    {
      "constant": false,
      "inputs": [
        {
          "name": "account",
          "type": "address"
        }
      ],
      "name": "addStore",
      "outputs": [],
      "payable": false,
      "stateMutability": "nonpayable",
      "type": "function",
      "signature": "0x91577623"
    },
    {
      "constant": false,
      "inputs": [],
      "name": "renounceBrand",
      "outputs": [],
      "payable": false,
      "stateMutability": "nonpayable",
      "type": "function",
      "signature": "0xeecd06f1"
    },
    {
      "inputs": [],
      "payable": true,
      "stateMutability": "payable",
      "type": "constructor",
      "signature": "constructor"
    },
    {
      "anonymous": false,
      "inputs": [
        {
          "indexed": false,
          "name": "upc",
          "type": "uint256"
        }
      ],
      "name": "Produced",
      "type": "event",
      "signature": "0x9d1715437821cd9a90cba5d1a68995c308d9ad9afc754ed9a1cff429760796e6"
    },
    {
      "anonymous": false,
      "inputs": [
        {
          "indexed": false,
          "name": "upc",
          "type": "uint256"
        }
      ],
      "name": "ForSale",
      "type": "event",
      "signature": "0xa96ae0fc3224ebd79eebfe54bd130cc9cb94416cddd1f2386115e00b72532468"
    },
    {
      "anonymous": false,
      "inputs": [
        {
          "indexed": false,
          "name": "upc",
          "type": "uint256"
        }
      ],
      "name": "Sold",
      "type": "event",
      "signature": "0x92f64ca637d023f354075a4be751b169c1a8a9ccb6d33cdd0cb3520543995727"
    },
    {
      "anonymous": false,
      "inputs": [
        {
          "indexed": false,
          "name": "upc",
          "type": "uint256"
        }
      ],
      "name": "Collected",
      "type": "event",
      "signature": "0x278111f058fcc15883749957935fb9630ea32a108dd40081364d762353441ccb"
    },
    {
      "anonymous": false,
      "inputs": [
        {
          "indexed": false,
          "name": "upc",
          "type": "uint256"
        }
      ],
      "name": "Sent",
      "type": "event",
      "signature": "0xff9eb9d26c4f039c77fb69f72cdcd62f2942afe4d95c7b00919c9b6a6bf003f1"
    },
    {
      "anonymous": false,
      "inputs": [
        {
          "indexed": false,
          "name": "upc",
          "type": "uint256"
        }
      ],
      "name": "Received",
      "type": "event",
      "signature": "0xa8142743f8f70a4c26f3691cf4ed59718381fb2f18070ec52be1f1022d855557"
    },
    {
      "anonymous": false,
      "inputs": [
        {
          "indexed": false,
          "name": "upc",
          "type": "uint256"
        }
      ],
      "name": "ForPurchase",
      "type": "event",
      "signature": "0x70c8907adbc70c123be129c28b7b5fa349be808d31b8acff2969a68651b1a613"
    },
    {
      "anonymous": false,
      "inputs": [
        {
          "indexed": false,
          "name": "upc",
          "type": "uint256"
        }
      ],
      "name": "Purchased",
      "type": "event",
      "signature": "0x653d56639fee6b566a5c804764e9689de38645f0b733df89a36a1b7b42173dd8"
    },
    {
      "anonymous": false,
      "inputs": [
        {
          "indexed": true,
          "name": "account",
          "type": "address"
        }
      ],
      "name": "ConsumerAdded",
      "type": "event",
      "signature": "0x28b26e7a3d20aedbc5f8f2ebf7da671c0491723a2b78f47a097b0e46dee07142"
    },
    {
      "anonymous": false,
      "inputs": [
        {
          "indexed": true,
          "name": "account",
          "type": "address"
        }
      ],
      "name": "ConsumerRemoved",
      "type": "event",
      "signature": "0xe3f5ed5f263f1f01764a96edfc7d025f511ec5f7d180e8816908b78bcf74f098"
    },
    {
      "anonymous": false,
      "inputs": [
        {
          "indexed": true,
          "name": "account",
          "type": "address"
        }
      ],
      "name": "StoreAdded",
      "type": "event",
      "signature": "0xd7143132cef62efb14dc187d256287bbc7e0f7ffeecf974b2ffede151ffb467c"
    },
    {
      "anonymous": false,
      "inputs": [
        {
          "indexed": true,
          "name": "account",
          "type": "address"
        }
      ],
      "name": "StoreRemoved",
      "type": "event",
      "signature": "0x8a3674246878227c5067d2b007a4bacdcade1cc2e8528c08c068d1987e99119c"
    },
    {
      "anonymous": false,
      "inputs": [
        {
          "indexed": true,
          "name": "account",
          "type": "address"
        }
      ],
      "name": "DistributorAdded",
      "type": "event",
      "signature": "0xddbf200aa634dc3fb81cfd68583dd1040d1c751d335e1d86b631bde3e977fea8"
    },
    {
      "anonymous": false,
      "inputs": [
        {
          "indexed": true,
          "name": "account",
          "type": "address"
        }
      ],
      "name": "DistributorRemoved",
      "type": "event",
      "signature": "0x126174f6cf49c81cdb4a9214c6b8f037bef55b4ec31e4fc776cea2a1c8a88d59"
    },
    {
      "anonymous": false,
      "inputs": [
        {
          "indexed": true,
          "name": "account",
          "type": "address"
        }
      ],
      "name": "BrandAdded",
      "type": "event",
      "signature": "0xf294465ab6aaa3650993093431777d23cda2be98f0ce448bbd202694c8beafb9"
    },
    {
      "anonymous": false,
      "inputs": [
        {
          "indexed": true,
          "name": "account",
          "type": "address"
        }
      ],
      "name": "BrandRemoved",
      "type": "event",
      "signature": "0x6b1e68582d3997fbab6e418eb4b63f4eb7d07b97cfaf26413e3f3052b68c43d0"
    },
    {
      "constant": false,
      "inputs": [],
      "name": "kill",
      "outputs": [],
      "payable": false,
      "stateMutability": "nonpayable",
      "type": "function",
      "signature": "0x41c0e1b5"
    },
    {
      "constant": false,
      "inputs": [
        {
          "name": "_upc",
          "type": "uint256"
        },
        {
          "name": "_originBrandID",
          "type": "address"
        },
        {
          "name": "_originBrandName",
          "type": "string"
        },
        {
          "name": "_originBrandInformation",
          "type": "string"
        },
        {
          "name": "_originBrandLatitude",
          "type": "string"
        },
        {
          "name": "_originBrandLongitude",
          "type": "string"
        },
        {
          "name": "_productNotes",
          "type": "string"
        }
      ],
      "name": "produceItem",
      "outputs": [],
      "payable": false,
      "stateMutability": "nonpayable",
      "type": "function",
      "signature": "0x96cd78e9"
    },
    {
      "constant": false,
      "inputs": [
        {
          "name": "_upc",
          "type": "uint256"
        }
      ],
      "name": "advertiseItem",
      "outputs": [],
      "payable": false,
      "stateMutability": "nonpayable",
      "type": "function",
      "signature": "0xef491cc4"
    },
    {
      "constant": false,
      "inputs": [
        {
          "name": "_upc",
          "type": "uint256"
        }
      ],
      "name": "buyItem",
      "outputs": [],
      "payable": false,
      "stateMutability": "nonpayable",
      "type": "function",
      "signature": "0xe7fb74c7"
    },
    {
      "constant": false,
      "inputs": [
        {
          "name": "_upc",
          "type": "uint256"
        }
      ],
      "name": "collectItem",
      "outputs": [],
      "payable": false,
      "stateMutability": "nonpayable",
      "type": "function",
      "signature": "0x3609a1eb"
    },
    {
      "constant": false,
      "inputs": [
        {
          "name": "_upc",
          "type": "uint256"
        }
      ],
      "name": "sendItem",
      "outputs": [],
      "payable": false,
      "stateMutability": "nonpayable",
      "type": "function",
      "signature": "0xe2440741"
    },
    {
      "constant": false,
      "inputs": [
        {
          "name": "_upc",
          "type": "uint256"
        }
      ],
      "name": "receiveItem",
      "outputs": [],
      "payable": false,
      "stateMutability": "nonpayable",
      "type": "function",
      "signature": "0xa26be999"
    },
    {
      "constant": false,
      "inputs": [
        {
          "name": "_upc",
          "type": "uint256"
        }
      ],
      "name": "storeItem",
      "outputs": [],
      "payable": false,
      "stateMutability": "nonpayable",
      "type": "function",
      "signature": "0x8b37988e"
    },
    {
      "constant": false,
      "inputs": [
        {
          "name": "_upc",
          "type": "uint256"
        }
      ],
      "name": "purchaseItem",
      "outputs": [],
      "payable": false,
      "stateMutability": "nonpayable",
      "type": "function",
      "signature": "0xd38ea5bf"
    },
    {
      "constant": true,
      "inputs": [
        {
          "name": "_upc",
          "type": "uint256"
        }
      ],
      "name": "fetchItemBufferOne",
      "outputs": [
        {
          "name": "itemSKU",
          "type": "uint256"
        },
        {
          "name": "itemUPC",
          "type": "uint256"
        },
        {
          "name": "ownerID",
          "type": "address"
        },
        {
          "name": "originBrandID",
          "type": "address"
        },
        {
          "name": "originBrandName",
          "type": "string"
        },
        {
          "name": "originBrandInformation",
          "type": "string"
        },
        {
          "name": "originBrandLatitude",
          "type": "string"
        },
        {
          "name": "originBrandLongitude",
          "type": "string"
        }
      ],
      "payable": false,
      "stateMutability": "view",
      "type": "function",
      "signature": "0x77c45913"
    },
    {
      "constant": true,
      "inputs": [
        {
          "name": "_upc",
          "type": "uint256"
        }
      ],
      "name": "fetchItemBufferTwo",
      "outputs": [
        {
          "name": "itemSKU",
          "type": "uint256"
        },
        {
          "name": "itemUPC",
          "type": "uint256"
        },
        {
          "name": "productID",
          "type": "uint256"
        },
        {
          "name": "productNotes",
          "type": "string"
        },
        {
          "name": "itemState",
          "type": "uint256"
        },
        {
          "name": "distributorID",
          "type": "address"
        },
        {
          "name": "storeID",
          "type": "address"
        },
        {
          "name": "consumerID",
          "type": "address"
        }
      ],
      "payable": false,
      "stateMutability": "view",
      "type": "function",
      "signature": "0x66225ff9"
    }
  ],
  "bytecode": "0x60806040526200001e33620000c3640100000000026401000000009004565b62000038336200012d640100000000026401000000009004565b620000523362000197640100000000026401000000009004565b6200006c3362000201640100000000026401000000009004565b33600460006101000a81548173ffffffffffffffffffffffffffffffffffffffff021916908373ffffffffffffffffffffffffffffffffffffffff16021790555060016006819055506001600581905550620003c3565b620000e78160006200026b640100000000026200292a179091906401000000009004565b8073ffffffffffffffffffffffffffffffffffffffff167ff294465ab6aaa3650993093431777d23cda2be98f0ce448bbd202694c8beafb960405160405180910390a250565b620001518160016200026b640100000000026200292a179091906401000000009004565b8073ffffffffffffffffffffffffffffffffffffffff167fddbf200aa634dc3fb81cfd68583dd1040d1c751d335e1d86b631bde3e977fea860405160405180910390a250565b620001bb8160026200026b640100000000026200292a179091906401000000009004565b8073ffffffffffffffffffffffffffffffffffffffff167fd7143132cef62efb14dc187d256287bbc7e0f7ffeecf974b2ffede151ffb467c60405160405180910390a250565b620002258160036200026b640100000000026200292a179091906401000000009004565b8073ffffffffffffffffffffffffffffffffffffffff167f28b26e7a3d20aedbc5f8f2ebf7da671c0491723a2b78f47a097b0e46dee0714260405160405180910390a250565b600073ffffffffffffffffffffffffffffffffffffffff168173ffffffffffffffffffffffffffffffffffffffff1614151515620002a857600080fd5b620002c382826200032e640100000000026401000000009004565b151515620002d057600080fd5b60018260000160008373ffffffffffffffffffffffffffffffffffffffff1673ffffffffffffffffffffffffffffffffffffffff16815260200190815260200160002060006101000a81548160ff0219169083151502179055505050565b60008073ffffffffffffffffffffffffffffffffffffffff168273ffffffffffffffffffffffffffffffffffffffff16141515156200036c57600080fd5b8260000160008373ffffffffffffffffffffffffffffffffffffffff1673ffffffffffffffffffffffffffffffffffffffff16815260200190815260200160002060009054906101000a900460ff16905092915050565b612c4380620003d36000396000f3fe608060405260043610610133576000357c0100000000000000000000000000000000000000000000000000000000900463ffffffff16806305a5562d14610138578063112940f9146101a157806333f28e64146101f25780633609a1eb1461025b5780633ff240c21461029657806341c0e1b5146102ad57806358aa5b2b146102c457806361e6982d14610315578063644241db1461032c57806366225ff9146103435780637250e224146104ac57806377c45913146104fd578063834ff739146107695780638b37988e146107d25780638f0c86fa1461080d578063915776231461087657806396cd78e9146108c7578063a26be99914610c15578063d38ea5bf14610c50578063e244074114610c8b578063e7fb74c714610cc6578063eecd06f114610d01578063ef491cc414610d18575b600080fd5b34801561014457600080fd5b506101876004803603602081101561015b57600080fd5b81019080803573ffffffffffffffffffffffffffffffffffffffff169060200190929190505050610d53565b604051808215151515815260200191505060405180910390f35b3480156101ad57600080fd5b506101f0600480360360208110156101c457600080fd5b81019080803573ffffffffffffffffffffffffffffffffffffffff169060200190929190505050610d70565b005b3480156101fe57600080fd5b506102416004803603602081101561021557600080fd5b81019080803573ffffffffffffffffffffffffffffffffffffffff169060200190929190505050610d90565b604051808215151515815260200191505060405180910390f35b34801561026757600080fd5b506102946004803603602081101561027e57600080fd5b8101908080359060200190929190505050610dad565b005b3480156102a257600080fd5b506102ab610e7d565b005b3480156102b957600080fd5b506102c2610e88565b005b3480156102d057600080fd5b50610313600480360360208110156102e757600080fd5b81019080803573ffffffffffffffffffffffffffffffffffffffff169060200190929190505050610f1b565b005b34801561032157600080fd5b5061032a610f3b565b005b34801561033857600080fd5b50610341610f46565b005b34801561034f57600080fd5b5061037c6004803603602081101561036657600080fd5b8101908080359060200190929190505050610f51565b60405180898152602001888152602001878152602001806020018681526020018573ffffffffffffffffffffffffffffffffffffffff1673ffffffffffffffffffffffffffffffffffffffff1681526020018473ffffffffffffffffffffffffffffffffffffffff1673ffffffffffffffffffffffffffffffffffffffff1681526020018373ffffffffffffffffffffffffffffffffffffffff1673ffffffffffffffffffffffffffffffffffffffff168152602001828103825287818151815260200191508051906020019080838360005b8381101561046a57808201518184015260208101905061044f565b50505050905090810190601f1680156104975780820380516001836020036101000a031916815260200191505b50995050505050505050505060405180910390f35b3480156104b857600080fd5b506104fb600480360360208110156104cf57600080fd5b81019080803573ffffffffffffffffffffffffffffffffffffffff169060200190929190505050611518565b005b34801561050957600080fd5b506105366004803603602081101561052057600080fd5b8101908080359060200190929190505050611538565b604051808981526020018881526020018773ffffffffffffffffffffffffffffffffffffffff1673ffffffffffffffffffffffffffffffffffffffff1681526020018673ffffffffffffffffffffffffffffffffffffffff1673ffffffffffffffffffffffffffffffffffffffff16815260200180602001806020018060200180602001858103855289818151815260200191508051906020019080838360005b838110156105f25780820151818401526020810190506105d7565b50505050905090810190601f16801561061f5780820380516001836020036101000a031916815260200191505b50858103845288818151815260200191508051906020019080838360005b8381101561065857808201518184015260208101905061063d565b50505050905090810190601f1680156106855780820380516001836020036101000a031916815260200191505b50858103835287818151815260200191508051906020019080838360005b838110156106be5780820151818401526020810190506106a3565b50505050905090810190601f1680156106eb5780820380516001836020036101000a031916815260200191505b50858103825286818151815260200191508051906020019080838360005b83811015610724578082015181840152602081019050610709565b50505050905090810190601f1680156107515780820380516001836020036101000a031916815260200191505b509c5050505050505050505050505060405180910390f35b34801561077557600080fd5b506107b86004803603602081101561078c57600080fd5b81019080803573ffffffffffffffffffffffffffffffffffffffff169060200190929190505050611aed565b604051808215151515815260200191505060405180910390f35b3480156107de57600080fd5b5061080b600480360360208110156107f557600080fd5b8101908080359060200190929190505050611b0a565b005b34801561081957600080fd5b5061085c6004803603602081101561083057600080fd5b81019080803573ffffffffffffffffffffffffffffffffffffffff169060200190929190505050611bda565b604051808215151515815260200191505060405180910390f35b34801561088257600080fd5b506108c56004803603602081101561089957600080fd5b81019080803573ffffffffffffffffffffffffffffffffffffffff169060200190929190505050611bf7565b005b3480156108d357600080fd5b50610c13600480360360e08110156108ea57600080fd5b8101908080359060200190929190803573ffffffffffffffffffffffffffffffffffffffff1690602001909291908035906020019064010000000081111561093157600080fd5b82018360208201111561094357600080fd5b8035906020019184600183028401116401000000008311171561096557600080fd5b91908080601f016020809104026020016040519081016040528093929190818152602001838380828437600081840152601f19601f820116905080830192505050505050509192919290803590602001906401000000008111156109c857600080fd5b8201836020820111156109da57600080fd5b803590602001918460018302840111640100000000831117156109fc57600080fd5b91908080601f016020809104026020016040519081016040528093929190818152602001838380828437600081840152601f19601f82011690508083019250505050505050919291929080359060200190640100000000811115610a5f57600080fd5b820183602082011115610a7157600080fd5b80359060200191846001830284011164010000000083111715610a9357600080fd5b91908080601f016020809104026020016040519081016040528093929190818152602001838380828437600081840152601f19601f82011690508083019250505050505050919291929080359060200190640100000000811115610af657600080fd5b820183602082011115610b0857600080fd5b80359060200191846001830284011164010000000083111715610b2a57600080fd5b91908080601f016020809104026020016040519081016040528093929190818152602001838380828437600081840152601f19601f82011690508083019250505050505050919291929080359060200190640100000000811115610b8d57600080fd5b820183602082011115610b9f57600080fd5b80359060200191846001830284011164010000000083111715610bc157600080fd5b91908080601f016020809104026020016040519081016040528093929190818152602001838380828437600081840152601f19601f820116905080830192505050505050509192919290505050611c17565b005b348015610c2157600080fd5b50610c4e60048036036020811015610c3857600080fd5b8101908080359060200190929190505050611fae565b005b348015610c5c57600080fd5b50610c8960048036036020811015610c7357600080fd5b8101908080359060200190929190505050612128565b005b348015610c9757600080fd5b50610cc460048036036020811015610cae57600080fd5b81019080803590602001909291905050506122a1565b005b348015610cd257600080fd5b50610cff60048036036020811015610ce957600080fd5b8101908080359060200190929190505050612371565b005b348015610d0d57600080fd5b50610d166124eb565b005b348015610d2457600080fd5b50610d5160048036036020811015610d3b57600080fd5b81019080803590602001909291905050506124f6565b005b6000610d698260006125c690919063ffffffff16565b9050919050565b610d7933611aed565b1515610d8457600080fd5b610d8d8161265a565b50565b6000610da68260026125c690919063ffffffff16565b9050919050565b8060026007811115610dbb57fe5b60076000838152602001908152602001600020600a0160009054906101000a900460ff166007811115610dea57fe5b141515610df657600080fd5b610dff33611bda565b1515610e0a57600080fd5b600360076000848152602001908152602001600020600a0160006101000a81548160ff02191690836007811115610e3d57fe5b02179055507f278111f058fcc15883749957935fb9630ea32a108dd40081364d762353441ccb826040518082815260200191505060405180910390a15050565b610e86336126b4565b565b600460009054906101000a900473ffffffffffffffffffffffffffffffffffffffff1673ffffffffffffffffffffffffffffffffffffffff163373ffffffffffffffffffffffffffffffffffffffff161415610f1957600460009054906101000a900473ffffffffffffffffffffffffffffffffffffffff1673ffffffffffffffffffffffffffffffffffffffff16ff5b565b610f2433610d53565b1515610f2f57600080fd5b610f388161270e565b50565b610f4433612768565b565b610f4f336127c2565b565b60008060006060600080600080610f66612a89565b600760008b81526020019081526020016000206101c0604051908101604052908160008201548152602001600182015481526020016002820160009054906101000a900473ffffffffffffffffffffffffffffffffffffffff1673ffffffffffffffffffffffffffffffffffffffff1673ffffffffffffffffffffffffffffffffffffffff1681526020016003820160009054906101000a900473ffffffffffffffffffffffffffffffffffffffff1673ffffffffffffffffffffffffffffffffffffffff1673ffffffffffffffffffffffffffffffffffffffff168152602001600482018054600181600116156101000203166002900480601f0160208091040260200160405190810160405280929190818152602001828054600181600116156101000203166002900480156110df5780601f106110b4576101008083540402835291602001916110df565b820191906000526020600020905b8154815290600101906020018083116110c257829003601f168201915b50505050508152602001600582018054600181600116156101000203166002900480601f0160208091040260200160405190810160405280929190818152602001828054600181600116156101000203166002900480156111815780601f1061115657610100808354040283529160200191611181565b820191906000526020600020905b81548152906001019060200180831161116457829003601f168201915b50505050508152602001600682018054600181600116156101000203166002900480601f0160208091040260200160405190810160405280929190818152602001828054600181600116156101000203166002900480156112235780601f106111f857610100808354040283529160200191611223565b820191906000526020600020905b81548152906001019060200180831161120657829003601f168201915b50505050508152602001600782018054600181600116156101000203166002900480601f0160208091040260200160405190810160405280929190818152602001828054600181600116156101000203166002900480156112c55780601f1061129a576101008083540402835291602001916112c5565b820191906000526020600020905b8154815290600101906020018083116112a857829003601f168201915b5050505050815260200160088201548152602001600982018054600181600116156101000203166002900480601f0160208091040260200160405190810160405280929190818152602001828054600181600116156101000203166002900480156113715780601f1061134657610100808354040283529160200191611371565b820191906000526020600020905b81548152906001019060200180831161135457829003601f168201915b50505050508152602001600a820160009054906101000a900460ff16600781111561139857fe5b60078111156113a357fe5b8152602001600a820160019054906101000a900473ffffffffffffffffffffffffffffffffffffffff1673ffffffffffffffffffffffffffffffffffffffff1673ffffffffffffffffffffffffffffffffffffffff168152602001600b820160009054906101000a900473ffffffffffffffffffffffffffffffffffffffff1673ffffffffffffffffffffffffffffffffffffffff1673ffffffffffffffffffffffffffffffffffffffff168152602001600c820160009054906101000a900473ffffffffffffffffffffffffffffffffffffffff1673ffffffffffffffffffffffffffffffffffffffff1673ffffffffffffffffffffffffffffffffffffffff1681525050905080600001519850806020015197508061010001519650806101200151955080610140015160078111156114da57fe5b945080610160015193508061018001519250806101a00151915088888888888888889850985098509850985098509850985050919395975091939597565b61152133611bda565b151561152c57600080fd5b6115358161281c565b50565b60008060008060608060608061154c612a89565b600760008b81526020019081526020016000206101c0604051908101604052908160008201548152602001600182015481526020016002820160009054906101000a900473ffffffffffffffffffffffffffffffffffffffff1673ffffffffffffffffffffffffffffffffffffffff1673ffffffffffffffffffffffffffffffffffffffff1681526020016003820160009054906101000a900473ffffffffffffffffffffffffffffffffffffffff1673ffffffffffffffffffffffffffffffffffffffff1673ffffffffffffffffffffffffffffffffffffffff168152602001600482018054600181600116156101000203166002900480601f0160208091040260200160405190810160405280929190818152602001828054600181600116156101000203166002900480156116c55780601f1061169a576101008083540402835291602001916116c5565b820191906000526020600020905b8154815290600101906020018083116116a857829003601f168201915b50505050508152602001600582018054600181600116156101000203166002900480601f0160208091040260200160405190810160405280929190818152602001828054600181600116156101000203166002900480156117675780601f1061173c57610100808354040283529160200191611767565b820191906000526020600020905b81548152906001019060200180831161174a57829003601f168201915b50505050508152602001600682018054600181600116156101000203166002900480601f0160208091040260200160405190810160405280929190818152602001828054600181600116156101000203166002900480156118095780601f106117de57610100808354040283529160200191611809565b820191906000526020600020905b8154815290600101906020018083116117ec57829003601f168201915b50505050508152602001600782018054600181600116156101000203166002900480601f0160208091040260200160405190810160405280929190818152602001828054600181600116156101000203166002900480156118ab5780601f10611880576101008083540402835291602001916118ab565b820191906000526020600020905b81548152906001019060200180831161188e57829003601f168201915b5050505050815260200160088201548152602001600982018054600181600116156101000203166002900480601f0160208091040260200160405190810160405280929190818152602001828054600181600116156101000203166002900480156119575780601f1061192c57610100808354040283529160200191611957565b820191906000526020600020905b81548152906001019060200180831161193a57829003601f168201915b50505050508152602001600a820160009054906101000a900460ff16600781111561197e57fe5b600781111561198957fe5b8152602001600a820160019054906101000a900473ffffffffffffffffffffffffffffffffffffffff1673ffffffffffffffffffffffffffffffffffffffff1673ffffffffffffffffffffffffffffffffffffffff168152602001600b820160009054906101000a900473ffffffffffffffffffffffffffffffffffffffff1673ffffffffffffffffffffffffffffffffffffffff1673ffffffffffffffffffffffffffffffffffffffff168152602001600c820160009054906101000a900473ffffffffffffffffffffffffffffffffffffffff1673ffffffffffffffffffffffffffffffffffffffff1673ffffffffffffffffffffffffffffffffffffffff1681525050905080600001519850806020015197508060400151965080606001519550806080015194508060a0015193508060c0015192508060e00151915088888888888888889850985098509850985098509850985050919395975091939597565b6000611b038260036125c690919063ffffffff16565b9050919050565b8060056007811115611b1857fe5b60076000838152602001908152602001600020600a0160009054906101000a900460ff166007811115611b4757fe5b141515611b5357600080fd5b611b5c33610d90565b1515611b6757600080fd5b600660076000848152602001908152602001600020600a0160006101000a81548160ff02191690836007811115611b9a57fe5b02179055507f70c8907adbc70c123be129c28b7b5fa349be808d31b8acff2969a68651b1a613826040518082815260200191505060405180910390a15050565b6000611bf08260016125c690919063ffffffff16565b9050919050565b611c0033610d90565b1515611c0b57600080fd5b611c1481612876565b50565b600087600654019050611c28612a89565b6101c06040519081016040528060065481526020018a81526020018973ffffffffffffffffffffffffffffffffffffffff1681526020018973ffffffffffffffffffffffffffffffffffffffff16815260200188815260200187815260200186815260200185815260200183815260200184815260200160006007811115611cac57fe5b8152602001600073ffffffffffffffffffffffffffffffffffffffff168152602001600073ffffffffffffffffffffffffffffffffffffffff168152602001600073ffffffffffffffffffffffffffffffffffffffff16815250905080600760008b8152602001908152602001600020600082015181600001556020820151816001015560408201518160020160006101000a81548173ffffffffffffffffffffffffffffffffffffffff021916908373ffffffffffffffffffffffffffffffffffffffff16021790555060608201518160030160006101000a81548173ffffffffffffffffffffffffffffffffffffffff021916908373ffffffffffffffffffffffffffffffffffffffff1602179055506080820151816004019080519060200190611dda929190612b72565b5060a0820151816005019080519060200190611df7929190612b72565b5060c0820151816006019080519060200190611e14929190612b72565b5060e0820151816007019080519060200190611e31929190612b72565b506101008201518160080155610120820151816009019080519060200190611e5a929190612b72565b5061014082015181600a0160006101000a81548160ff02191690836007811115611e8057fe5b021790555061016082015181600a0160016101000a81548173ffffffffffffffffffffffffffffffffffffffff021916908373ffffffffffffffffffffffffffffffffffffffff16021790555061018082015181600b0160006101000a81548173ffffffffffffffffffffffffffffffffffffffff021916908373ffffffffffffffffffffffffffffffffffffffff1602179055506101a082015181600c0160006101000a81548173ffffffffffffffffffffffffffffffffffffffff021916908373ffffffffffffffffffffffffffffffffffffffff1602179055509050506001600654016006819055507f9d1715437821cd9a90cba5d1a68995c308d9ad9afc754ed9a1cff429760796e6896040518082815260200191505060405180910390a1505050505050505050565b8060046007811115611fbc57fe5b60076000838152602001908152602001600020600a0160009054906101000a900460ff166007811115611feb57fe5b141515611ff757600080fd5b61200033610d90565b151561200b57600080fd5b336007600084815260200190815260200160002060020160006101000a81548173ffffffffffffffffffffffffffffffffffffffff021916908373ffffffffffffffffffffffffffffffffffffffff1602179055503360076000848152602001908152602001600020600b0160006101000a81548173ffffffffffffffffffffffffffffffffffffffff021916908373ffffffffffffffffffffffffffffffffffffffff160217905550600560076000848152602001908152602001600020600a0160006101000a81548160ff021916908360078111156120e857fe5b02179055507fa8142743f8f70a4c26f3691cf4ed59718381fb2f18070ec52be1f1022d855557826040518082815260200191505060405180910390a15050565b806006600781111561213657fe5b60076000838152602001908152602001600020600a0160009054906101000a900460ff16600781111561216557fe5b14151561217157600080fd5b61217a33611aed565b151561218557600080fd5b336007600084815260200190815260200160002060020160006101000a81548173ffffffffffffffffffffffffffffffffffffffff021916908373ffffffffffffffffffffffffffffffffffffffff1602179055503360076000848152602001908152602001600020600c0160006101000a81548173ffffffffffffffffffffffffffffffffffffffff021916908373ffffffffffffffffffffffffffffffffffffffff1602179055506007806000848152602001908152602001600020600a0160006101000a81548160ff0219169083600781111561226157fe5b02179055507f653d56639fee6b566a5c804764e9689de38645f0b733df89a36a1b7b42173dd8826040518082815260200191505060405180910390a15050565b80600360078111156122af57fe5b60076000838152602001908152602001600020600a0160009054906101000a900460ff1660078111156122de57fe5b1415156122ea57600080fd5b6122f333611bda565b15156122fe57600080fd5b600460076000848152602001908152602001600020600a0160006101000a81548160ff0219169083600781111561233157fe5b02179055507fff9eb9d26c4f039c77fb69f72cdcd62f2942afe4d95c7b00919c9b6a6bf003f1826040518082815260200191505060405180910390a15050565b806001600781111561237f57fe5b60076000838152602001908152602001600020600a0160009054906101000a900460ff1660078111156123ae57fe5b1415156123ba57600080fd5b6123c333611bda565b15156123ce57600080fd5b336007600084815260200190815260200160002060020160006101000a81548173ffffffffffffffffffffffffffffffffffffffff021916908373ffffffffffffffffffffffffffffffffffffffff1602179055503360076000848152602001908152602001600020600a0160016101000a81548173ffffffffffffffffffffffffffffffffffffffff021916908373ffffffffffffffffffffffffffffffffffffffff160217905550600260076000848152602001908152602001600020600a0160006101000a81548160ff021916908360078111156124ab57fe5b02179055507f92f64ca637d023f354075a4be751b169c1a8a9ccb6d33cdd0cb3520543995727826040518082815260200191505060405180910390a15050565b6124f4336128d0565b565b806000600781111561250457fe5b60076000838152602001908152602001600020600a0160009054906101000a900460ff16600781111561253357fe5b14151561253f57600080fd5b61254833610d53565b151561255357600080fd5b600160076000848152602001908152602001600020600a0160006101000a81548160ff0219169083600781111561258657fe5b02179055507fa96ae0fc3224ebd79eebfe54bd130cc9cb94416cddd1f2386115e00b72532468826040518082815260200191505060405180910390a15050565b60008073ffffffffffffffffffffffffffffffffffffffff168273ffffffffffffffffffffffffffffffffffffffff161415151561260357600080fd5b8260000160008373ffffffffffffffffffffffffffffffffffffffff1673ffffffffffffffffffffffffffffffffffffffff16815260200190815260200160002060009054906101000a900460ff16905092915050565b61266e81600361292a90919063ffffffff16565b8073ffffffffffffffffffffffffffffffffffffffff167f28b26e7a3d20aedbc5f8f2ebf7da671c0491723a2b78f47a097b0e46dee0714260405160405180910390a250565b6126c88160026129da90919063ffffffff16565b8073ffffffffffffffffffffffffffffffffffffffff167f8a3674246878227c5067d2b007a4bacdcade1cc2e8528c08c068d1987e99119c60405160405180910390a250565b61272281600061292a90919063ffffffff16565b8073ffffffffffffffffffffffffffffffffffffffff167ff294465ab6aaa3650993093431777d23cda2be98f0ce448bbd202694c8beafb960405160405180910390a250565b61277c8160036129da90919063ffffffff16565b8073ffffffffffffffffffffffffffffffffffffffff167fe3f5ed5f263f1f01764a96edfc7d025f511ec5f7d180e8816908b78bcf74f09860405160405180910390a250565b6127d68160016129da90919063ffffffff16565b8073ffffffffffffffffffffffffffffffffffffffff167f126174f6cf49c81cdb4a9214c6b8f037bef55b4ec31e4fc776cea2a1c8a88d5960405160405180910390a250565b61283081600161292a90919063ffffffff16565b8073ffffffffffffffffffffffffffffffffffffffff167fddbf200aa634dc3fb81cfd68583dd1040d1c751d335e1d86b631bde3e977fea860405160405180910390a250565b61288a81600261292a90919063ffffffff16565b8073ffffffffffffffffffffffffffffffffffffffff167fd7143132cef62efb14dc187d256287bbc7e0f7ffeecf974b2ffede151ffb467c60405160405180910390a250565b6128e48160006129da90919063ffffffff16565b8073ffffffffffffffffffffffffffffffffffffffff167f6b1e68582d3997fbab6e418eb4b63f4eb7d07b97cfaf26413e3f3052b68c43d060405160405180910390a250565b600073ffffffffffffffffffffffffffffffffffffffff168173ffffffffffffffffffffffffffffffffffffffff161415151561296657600080fd5b61297082826125c6565b15151561297c57600080fd5b60018260000160008373ffffffffffffffffffffffffffffffffffffffff1673ffffffffffffffffffffffffffffffffffffffff16815260200190815260200160002060006101000a81548160ff0219169083151502179055505050565b600073ffffffffffffffffffffffffffffffffffffffff168173ffffffffffffffffffffffffffffffffffffffff1614151515612a1657600080fd5b612a2082826125c6565b1515612a2b57600080fd5b60008260000160008373ffffffffffffffffffffffffffffffffffffffff1673ffffffffffffffffffffffffffffffffffffffff16815260200190815260200160002060006101000a81548160ff0219169083151502179055505050565b6101c0604051908101604052806000815260200160008152602001600073ffffffffffffffffffffffffffffffffffffffff168152602001600073ffffffffffffffffffffffffffffffffffffffff16815260200160608152602001606081526020016060815260200160608152602001600081526020016060815260200160006007811115612b1557fe5b8152602001600073ffffffffffffffffffffffffffffffffffffffff168152602001600073ffffffffffffffffffffffffffffffffffffffff168152602001600073ffffffffffffffffffffffffffffffffffffffff1681525090565b828054600181600116156101000203166002900490600052602060002090601f016020900481019282601f10612bb357805160ff1916838001178555612be1565b82800160010185558215612be1579182015b82811115612be0578251825591602001919060010190612bc5565b5b509050612bee9190612bf2565b5090565b612c1491905b80821115612c10576000816000905550600101612bf8565b5090565b9056fea165627a7a7230582072479571cce1ffbd90f968614546d5ec8af4845abe460d9c28d78c16a35d1bfa0029",
  "source": "pragma solidity ^0.5.0;\n\nimport \"../brandAccessControl/BrandRole.sol\";\nimport \"../brandAccessControl/DistributorRole.sol\";\nimport \"../brandAccessControl/StoreRole.sol\";\nimport \"../brandAccessControl/ConsumerRole.sol\";\nimport \"../brandCore/Ownable.sol\";\n\n// Define a contract 'Supplychain'\ncontract SupplyChain is BrandRole, DistributorRole, StoreRole, ConsumerRole {\n\n    // Define 'owner'\n    address payable owner;\n\n    // Define a variable called 'upc' for Universal Product Code (UPC)\n    uint    upc;\n\n    // Define a variable called 'sku' for Stock Keeping Unit (SKU)\n    uint    sku;\n\n    // Define a public mapping 'items' that maps the UPC to an Item.\n    mapping (uint => Item) items;\n\n    // Define a public mapping 'itemsHistory' that maps the UPC to an array of TxHash,\n    // that track its journey through the supply chain -- to be sent from DApp.\n    mapping (uint => string[]) itemsHistory;\n\n    // Define enum 'State' with the following values:\n    enum State\n    {\n        Produced,       // 0\n        ForSale,        // 1\n        Sold,           // 2\n        Collected,      // 3\n        Sent,           // 4\n        Received,       // 5\n        ForPurchase,    // 6\n        Purchased       // 7\n    }\n\n    State constant defaultState = State.Produced;\n\n    // Define a struct 'Item' with the following fields:\n    struct Item {\n        uint    sku;                    // Stock Keeping Unit (SKU)\n        uint    upc;                    // Universal Product Code (UPC), generated by the Brand, goes on the package, can be verified by the Consumer\n        address ownerID;                // Metamask-Ethereum address of the current owner as the product moves through 8 stages\n        address originBrandID;          // Metamask-Ethereum address of the Brand\n        string  originBrandName;        // Brand Name\n        string  originBrandInformation; // Brand Information\n        string  originBrandLatitude;    // Brand Latitude\n        string  originBrandLongitude;   // Brand Longitude\n        uint    productID;              // Product ID potentially a combination of upc + sku\n        string  productNotes;           // Product Notes\n        State   itemState;              // Product State as represented in the enum above\n        address distributorID;          // Metamask-Ethereum address of the Distributor\n        address storeID;                // Metamask-Ethereum address of the Store\n        address consumerID;             // Metamask-Ethereum address of the Consumer\n    }\n\n    // Define 8 events with the same 8 state values and accept 'upc' as input argument\n    event Produced(uint upc);\n    event ForSale(uint upc);\n    event Sold(uint upc);\n    event Collected(uint upc);\n    event Sent(uint upc);\n    event Received(uint upc);\n    event ForPurchase(uint upc);\n    event Purchased(uint upc);\n\n    // Define a modifer that checks to see if msg.sender == owner of the contract\n    modifier onlyOwner() {\n        require(msg.sender == owner);\n        _;\n    }\n\n    // Define a modifer that verifies the Caller\n    modifier verifyCaller (address _address) {\n        require(msg.sender == _address);\n        _;\n    }\n\n    // Define a modifier that checks if the paid amount is sufficient to cover the price\n    // modifier paidEnough(uint _price) {\n    //     require(msg.value >= _price);\n    //     _;\n    // }\n\n    // Define a modifier that checks the price and refunds the remaining balance\n    // modifier checkValue(uint _upc) {\n    //     _;\n    //     uint _price = items[_upc].productPrice;\n    //     uint amountToReturn = msg.value - _price;\n    //     items[_upc].consumerID.transfer(amountToReturn);\n    // }\n\n    // Define a modifier that checks if an item.state of a upc is Produced\n    modifier produced(uint _upc) {\n        require(items[_upc].itemState == State.Produced);\n        _;\n    }\n\n    // Define a modifier that checks if an item.state of a upc is ForSale\n    modifier forSale(uint _upc) {\n        require(items[_upc].itemState == State.ForSale);\n        _;\n    }\n\n    // Define a modifier that checks if an item.state of a upc is Sold\n    modifier sold(uint _upc) {\n        require(items[_upc].itemState == State.Sold);\n        _;\n    }\n\n    // Define a modifier that checks if an item.state of a upc is Sent\n    modifier sent(uint _upc) {\n        require(items[_upc].itemState == State.Sent);\n        _;\n    }\n\n    // Define a modifier that checks if an item.state of a upc is Collected\n    modifier collected(uint _upc) {\n        require(items[_upc].itemState == State.Collected);\n        _;\n    }\n\n    // Define a modifier that checks if an item.state of a upc is Received\n    modifier received(uint _upc) {\n        require(items[_upc].itemState == State.Received);\n        _;\n    }\n\n    // Define a modifier that checks if an item.state of a upc is ForPurchase\n    modifier forPurchase(uint _upc) {\n        require(items[_upc].itemState == State.ForPurchase);\n        _;\n    }\n\n    // Define a modifier that checks if an item.state of a upc is Purchased\n    modifier purchased(uint _upc) {\n        require(items[_upc].itemState == State.Purchased);\n        _;\n    }\n\n    // In the constructor set 'owner' to the address that instantiated the contract\n    // and set 'sku' to 1\n    // and set 'upc' to 1\n    constructor() public payable {\n        owner = msg.sender;\n        sku = 1;\n        upc = 1;\n    }\n\n    // Define a function 'kill' if required\n    function kill() public {\n        if (msg.sender == owner) {\n            selfdestruct(owner);\n        }\n    }\n\n    // Define a function 'produceItem' that allows a brand to mark an item 'Produced'\n    function produceItem(\n        uint    _upc,\n        address _originBrandID,\n        string memory  _originBrandName,\n        string memory  _originBrandInformation,\n        string memory  _originBrandLatitude,\n        string memory  _originBrandLongitude,\n        string memory  _productNotes\n        )\n        public\n    {\n        // Add the new item as part of Produce\n        uint _productID = sku + _upc;\n        Item memory item = Item(\n            sku,                        // sku\n            _upc,                       // upc\n            _originBrandID,             // ownerID\n            _originBrandID,             // originBrandID\n            _originBrandName,           // originBrandName\n            _originBrandInformation,    // originBrandInformation\n            _originBrandLatitude,       // originBrandLatitude\n            _originBrandLongitude,      // originBrandLongitude\n            _productID,                 // productID\n            _productNotes,              // productNotes\n            State.Produced,             // itemState\n            address(0),                 // distributorID\n            address(0),                 // storeID\n            address(0)                  // consumerID\n        );\n\n        items[_upc] = item;\n        // Increment sku\n        sku = sku + 1;\n        // Emit the appropriate event\n        emit Produced(_upc);\n    }\n\n    // Define a function 'advertiseItem' that allows a brand to mark an item 'Collected'\n    function advertiseItem(uint _upc) public produced(_upc) onlyBrand()\n    {\n        // Update the appropriate fields\n        items[_upc].itemState = State.ForSale;\n        // Emit the appropriate event\n        emit ForSale(_upc);\n    }\n\n    // Define a function 'buyItem' that allows a distributor to mark an item 'sold'\n    function buyItem(uint _upc) public forSale(_upc) onlyDistributor()\n    {\n        // Update the appropriate fields\n        items[_upc].ownerID = msg.sender;\n        items[_upc].distributorID = msg.sender;\n        items[_upc].itemState = State.Sold;\n        // Emit the appropriate event\n        emit Sold(_upc);\n    }\n\n    // Define a function 'sellItem' that allows a distributor to mark an item 'collected'\n    function collectItem(uint _upc) public sold(_upc) onlyDistributor()\n    {\n        // Update the appropriate fields\n        items[_upc].itemState = State.Collected;\n        // Emit the appropriate event\n        emit Collected(_upc);\n    }\n\n    // Define a function 'sendItem' that allows a distributor to mark an item 'sent'\n    function sendItem(uint _upc) public collected(_upc) onlyDistributor()\n    {\n        // Update the appropriate fields - ownerID, distributorID, itemState\n        items[_upc].itemState = State.Sent;\n        // emit the appropriate event\n        emit Sent(_upc);\n    }\n\n    // Define a function 'receiveItem' that allows a store to mark an item 'Received'\n    function receiveItem(uint _upc) public sent(_upc) onlyStore()\n    {\n        // Update the appropriate fields - ownerID, storeID, itemState\n        items[_upc].ownerID = msg.sender;\n        items[_upc].storeID = msg.sender;\n        items[_upc].itemState = State.Received;\n        // Emit the appropriate event\n        emit Received(_upc);\n    }\n\n    // Define a function 'storeItem' that allows a store to mark an item 'ForPurchase'\n    function storeItem(uint _upc) public received(_upc) onlyStore()\n    {\n        // Update the appropriate fields\n        items[_upc].itemState = State.ForPurchase;\n        // Emit the appropriate event\n        emit ForPurchase(_upc);\n    }\n\n    // Define a function 'purchaseItem' that allows a consumer to mark an item 'Purchased'\n    // Use the above modifiers to check if the item is received\n    function purchaseItem(uint _upc) public forPurchase(_upc) onlyConsumer()\n    {\n        // Update the appropriate fields - ownerID, consumerID, itemState\n        items[_upc].ownerID = msg.sender;\n        items[_upc].consumerID = msg.sender;\n        items[_upc].itemState = State.Purchased;\n        // Emit the appropriate event\n        emit Purchased(_upc);\n    }\n\n    // Define a function 'fetchItemBufferOne' that fetches the data\n    function fetchItemBufferOne(uint _upc) public view\n        returns(\n            uint itemSKU,\n            uint itemUPC,\n            address ownerID,\n            address originBrandID,\n            string memory originBrandName,\n            string memory originBrandInformation,\n            string memory originBrandLatitude,\n            string memory originBrandLongitude\n        )\n    {\n        // Assign values to the 8 parameters\n        Item memory item = items[_upc];\n\n        itemSKU = item.sku;\n        itemUPC = item.upc;\n        ownerID = item.ownerID;\n        originBrandID = item.originBrandID;\n        originBrandName = item.originBrandName;\n        originBrandInformation = item.originBrandInformation;\n        originBrandLatitude = item.originBrandLatitude;\n        originBrandLongitude = item.originBrandLongitude;\n\n        return ( itemSKU, itemUPC, ownerID, originBrandID, originBrandName, originBrandInformation,\n                originBrandLatitude, originBrandLongitude );\n    }\n\n    // Define a function 'fetchItemBufferTwo' that fetches the data\n    function fetchItemBufferTwo(uint _upc) public view\n        returns(\n            uint    itemSKU,\n            uint    itemUPC,\n            uint    productID,\n            string memory  productNotes,\n            uint    itemState,\n            address distributorID,\n            address storeID,\n            address consumerID\n        )\n    {\n        // Assign values to the 9 parameters\n        Item memory item = items[_upc];\n\n        itemSKU = item.sku;\n        itemUPC = item.upc;\n        productID = item.productID;\n        productNotes = item.productNotes;\n        itemState = uint(item.itemState);\n        distributorID = item.distributorID;\n        storeID = item.storeID;\n        consumerID = item.consumerID;\n\n        return ( itemSKU, itemUPC, productID, productNotes, itemState, distributorID, storeID, consumerID );\n    }\n}\n",
  "sourcePath": "/Users/asajm/nanodegrees/blockchain developer/Project_9/brandSupplyChain/contracts/brandBase/SupplyChain.sol",
  "compiler": {
    "name": "solc",
    "version": "0.5.0+commit.1d4f565a.Emscripten.clang"
  },
  "schemaVersion": "3.0.2",
  "updatedAt": "2019-03-23T12:26:50.000Z",
  "devdoc": {
    "methods": {}
  },
  "userdoc": {
    "methods": {}
  }
}